:100000000C9475000C9492000C9492000C94920045
:100010000C9492000C9492000C9492000C94920018
:100020000C9492000C9492000C9492000C94920008
:100030000C9492000C9492000C9492000C949200F8
:100040000C9492000C9492000C9492000C949200E8
:100050000C9492000C9492000C9492000C949200D8
:100060000C9492000C94920007634236B79BD8A779
:100070001A39685618AEBAAB558C1D3CB7CC5763CD
:10008000BD6DEDFD753EF6177231BF000000803F7B
:1000900008000000BE922449123EABAAAA2ABECD97
:1000A000CCCC4C3E00000080BEABAAAAAA3E000009
:1000B0000000BF000000803F000000000008417801
:1000C000D3BB4387D1133D190E3CC3BD4282AD2B38
:1000D0003E68EC8276BED98FE1A93E4C80EFFFBE30
:1000E00001C4FF7F3F000000000011241FBECFEFBE
:1000F000D8E0DEBFCDBF11E0A0E0B1E0E8E5FCE074
:1001000002C005900D92AE32B107D9F721E0AEE200
:10011000B1E001C01D92A033B207E1F70E94E801EF
:100120000C942A060C94000081E08093C5008FE9AE
:100130008093C40088E18093C10086E08093C20070
:1001400008959091C00095FFFCCF8093C60008955C
:100150008091C0008823E4F78091C6000895615023
:10016000710920E030E00EC0DC01A20FB31F4C91FA
:10017000FC01E60FF71F50815C9340832F5F3F4FD8
:1001800061507109261737077CF308950F931F9369
:10019000CF93DF938B019A01C0E0D0E00CC0F8014F
:1001A000EC0FFD1F6AE070E00E94EC05805D80832B
:1001B000862F972F2196009791F706C0F801EC0F34
:1001C000FD1F80E380832196C217D307BCF3BE01D5
:1001D000C8010E94AF00F801EC0FFD1F1082CE0194
:1001E000DF91CF911F910F9108954F925F926F927F
:1001F0007F928F929F92AF92BF92EF92FF920F9356
:100200001F93CF93DF932B013C017A0189010E9458
:1002100036034B015C01072E000C880B990B0E94E2
:100220006E039B01AC01C301B2010E9457022B0176
:100230003C0140E050E0B701C4010E94C600EC015F
:100240000115110529F1F701E80FF91F8EE28083EE
:10025000B801012E000C880B990B0E946E039B01C4
:10026000AC0160E070E080E291E40E9467049B01D1
:10027000AC01C301B2010E94FA032196CE0DDF1D2D
:100280000E943603DC01CB01A801BE010E94C6001A
:10029000DF91CF911F910F91FF90EF90BF90AF90A2
:1002A0009F908F907F906F905F904F900895CF9325
:1002B000DF93EC0103C021960E94A1008881811187
:1002C000FACFDF91CF9108950F931F93CF93DF93D0
:1002D0008C01D62FC0E00BC00E94A8008A3079F0B4
:1002E0008D3069F0F801EC0FF11D8083CF5F2C2F6A
:1002F00030E08D2F90E00197281739076CF3F80153
:10030000EC0FF11D1082DF91CF911F910F91089595
:100310000F931F93CF93DF93EB0110C021968C01B5
:100320000F5F1F4F0E941C0680912E0190912F019C
:10033000019690932F0180932E01C801688161116D
:10034000EDCFDF91CF911F910F910895EF92FF9222
:100350000F931F93CF93DF938B01D42FC0E00EC078
:100360007C012FEFE21AF20A0E941406882379F02A
:10037000F801EC0FF11D8083CF5FC7014C2F50E0D7
:100380002D2F30E021503109421753074CF3F8016B
:10039000EC0FF11D1082DF91CF911F910F91FF9013
:1003A000EF90089581E0809381000895109281007C
:1003B000609184007091850080E090E008950E9433
:1003C0006C032DEB37E346E853E30E94FA030895EC
:1003D000CF93DF93CDB7DEB7CC5CD1090FB6F894DD
:1003E000DEBF0FBECDBF0E9494000E94D20164E622
:1003F000CE0101960E946401BE016F5F7F4F80E0D5
:1004000090E00E94880144E6BE016B597F4F80E076
:1004100090E00E94A6018CE091E00E945701CE017D
:100420008B599F4F0E94570180E291E00E94570133
:100430000E94D6012FEF33ED40E321503040404081
:10044000E1F700C000000E94DF016B017C016091B8
:100450002E0170912F01072E000C880B990B0E9422
:100460006E03A70196010E94C40224E030E0AE01B1
:1004700047535F4F0E94F50082E291E00E945701CE
:10048000CE0187539F4F0E94570180E291E00E9466
:10049000570110922F0110922E018FEF93ED20E360
:1004A000815090402040E1F700C000009ECF50589E
:1004B000BB27AA270E946F020C94C0030E94B203BC
:1004C00038F00E94B90320F039F49F3F19F426F464
:1004D0000C94AF030EF4E095E7FB0C94A903E92F0D
:1004E0000E94D10358F3BA17620773078407950770
:1004F00020F079F4A6F50C94F3030EF4E0950B2E9E
:10050000BA2FA02D0B01B90190010C01CA01A00165
:100510001124FF27591B99F0593F50F4503E68F1C0
:100520001A16F040A22F232F342F4427585FF3CF01
:10053000469537952795A795F0405395C9F77EF4D2
:100540001F16BA0B620B730B840BBAF09150A1F01B
:10055000FF0FBB1F661F771F881FC2F70EC0BA0FA1
:10056000621F731F841F48F4879577956795B79529
:10057000F7959E3F08F0B0CF9395880F08F0992724
:10058000EE0F9795879508950E94D8020C94C003AA
:100590000E94B90358F00E94B20340F029F45F3F73
:1005A00029F00C94A90351110C94F4030C94AF039B
:1005B0000E94D10368F39923B1F3552391F3951B5E
:1005C000550BBB27AA2762177307840738F09F5F74
:1005D0005F4F220F331F441FAA1FA9F335D00E2EE1
:1005E0003AF0E0E832D091505040E695001CCAF74E
:1005F0002BD0FE2F29D0660F771F881FBB1F261711
:1006000037074807AB07B0E809F0BB0B802DBF01E7
:10061000FF2793585F4F3AF09E3F510578F00C94B6
:10062000A9030C94F4035F3FE4F3983ED4F386955A
:1006300077956795B795F7959F5FC9F7880F911DD7
:100640009695879597F90895E1E0660F771F881FC3
:10065000BB1F621773078407BA0720F0621B730B76
:10066000840BBA0BEE1F88F7E09508950E943D03B6
:100670006894B1110C94F40308950E94D90388F092
:100680009F5798F0B92F9927B751B0F0E1F0660F56
:10069000771F881F991F1AF0BA95C9F714C0B13097
:1006A00091F00E94F303B1E008950C94F303672FD7
:1006B000782F8827B85F39F0B93FCCF386957795C6
:1006C0006795B395D9F73EF49095809570956195AF
:1006D0007F4F8F4F9F4F0895E89409C097FB3EF4DA
:1006E00090958095709561957F4F8F4F9F4F99237F
:1006F000A9F0F92F96E9BB279395F69587957795FD
:100700006795B795F111F8CFFAF4BB0F11F460FFBC
:100710001BC06F5F7F4F8F4F9F4F16C0882311F014
:1007200096E911C0772321F09EE8872F762F05C028
:10073000662371F096E8862F70E060E02AF09A95C3
:10074000660F771F881FDAF7880F9695879597F9B8
:10075000089597F99F6780E870E060E008959FEF43
:1007600080EC089500240A94161617061806090648
:10077000089500240A941216130614060506089517
:10078000092E0394000C11F4882352F0BB0F40F49F
:10079000BF2B11F460FF04C06F5F7F4F8F4F9F4FDF
:1007A000089557FD9058440F551F59F05F3F71F061
:1007B0004795880F97FB991F61F09F3F79F08795C8
:1007C0000895121613061406551FF2CF4695F1DF51
:1007D00008C0161617061806991FF1CF86957105E1
:1007E000610508940895E894BB2766277727CB0115
:1007F00097F908950E940D040C94C0030E94B2035F
:1008000038F00E94B90320F0952311F00C94A9034D
:100810000C94AF0311240C94F4030E94D10370F3E1
:10082000959FC1F3950F50E0551F629FF001729F95
:10083000BB27F00DB11D639FAA27F00DB11DAA1FA4
:10084000649F6627B00DA11D661F829F2227B00DF1
:10085000A11D621F739FB00DA11D621F839FA00D7C
:10086000611D221F749F3327A00D611D231F849FCC
:10087000600D211D822F762F6A2F11249F57504023
:100880009AF0F1F088234AF0EE0FFF1FBB1F661F9E
:10089000771F881F91505040A9F79E3F510580F067
:1008A0000C94A9030C94F4035F3FE4F3983ED4F353
:1008B000869577956795B795F795E7959F5FC1F70B
:1008C000FE2B880F911D9695879597F90895FA014B
:1008D000EE0FFF1F309621053105A1F1611571055D
:1008E00061F48038BFE39B0749F168949038810533
:1008F00061F08038BFEF9B0741F099234AF5FF3F35
:10090000E1053105210519F1E8940894E795D9012D
:10091000AA2329F4AB2FBE2FF85FD0F310C0FF5FDE
:1009200070F4A695E0F7F73950F019F0FF3A38F473
:100930009F779F930DD00F9007FC9058089546F035
:100940000C94AF0360E070E080E89FE308954FE708
:100950009F775F934F933F932F930E9462052F9150
:100960003F914F915F910E94FA030C94BF0429F4C8
:1009700016F00C94A9030C94F3030C94AF030E949B
:10098000D903A8F39638A0F707F80F92E8942BE361
:100990003AEA48EB5FE70E9410040F920F920F9221
:1009A0004DB75EB70F920E94AA05E8E6F0E00E94FC
:1009B000F1044F915F91EF91FF91E595EE1FFF1FBD
:1009C00049F0FE57E0684427EE0F441FFA95E1F71F
:1009D0004195550B0E9424050F9007FE0C941805B5
:1009E0000895DF93CF931F930F93FF92EF92DF92BF
:1009F0007B018C01689406C0DA2EEF010E940D0481
:100A0000FE01E894A5912591359145915591A6F364
:100A1000EF010E946F02FE019701A801DA9469F7C5
:100A2000DF90EF90FF900F911F91CF91DF9108958C
:100A30009B01AC0160E070E080E89FE30C94C4028D
:100A40000C94A9030C94DE050E94D903D8F39923D2
:100A5000C9F3940F511DA3F39150504094F059F0F5
:100A6000882332F0660F771F881F91505040C1F7DE
:100A70009E3F51052CF7880F911D9695879597F904
:100A800008955F3FACF0983E9CF0BB278695779524
:100A90006795B79508F4B1609395C1F7BB0F58F708
:100AA00011F460FFE8CF6F5F7F4F8F4F9F4FE3CF11
:100AB0000C94F40316F00C94DE050C94AF036894C8
:100AC0000C94A9030E94D903A8F39923C1F3AEF3B0
:100AD000DF93CF931F930F93FF92C92FDD278823B6
:100AE0002AF02197660F771F881FDAF720E030E0A1
:100AF00040E85FEB9FE3883920F0803E38F0219694
:100B00008F770E945802E0E9F0E004C00E9458028A
:100B1000EDEBF0E00E94F1048B01BE01EC01FB2E35
:100B20006F5771097595771F880B990B0E946E039B
:100B300028E132E741E35FE30E940D04AF2D980105
:100B4000AE01FF900F911F91CF91DF910E946F0234
:100B50000C94C003FA01DC01AA0FBB1F9B01AC017E
:100B6000BF5728F4222733274427507820C0B75195
:100B700090F4AB2F0024469537952795011CA3953B
:100B8000D2F3002071F0220F331F441FB395DAF324
:100B90000ED00C94570261307105A0E88A07B9465F
:100BA00030F49B01AC016627772788279078309630
:100BB00021F0208331834283538308959F3F31F096
:100BC000915020F4879577956795B795880F911D7B
:100BD0009695879597F9089597FB072E16F400943C
:100BE00007D077FD09D00E94000607FC05D03EF42F
:100BF000909581959F4F0895709561957F4F0895C9
:100C0000AA1BBB1B51E107C0AA1FBB1FA617B70732
:100C100010F0A61BB70B881F991F5A95A9F780954E
:100C20009095BC01CD010895F999FECF92BD81BD8B
:100C3000F89A992780B50895262FF999FECF1FBA03
:100C400092BD81BD20BD0FB6F894FA9AF99A0FBEF5
:080C500001960895F894FFCF0E
:100C5800256400256C7500252E3266007374726950
:100C68006E672066726F6D20656570726F6D3A00F1
:0E0C78000A0054696D652054616B656E3A0088
:00000001FF
